{
  "contractName": "MultiSender",
  "abi": [
    {
      "constant": false,
      "inputs": [
        {
          "name": "_spender",
          "type": "address"
        },
        {
          "name": "_value",
          "type": "uint256"
        }
      ],
      "name": "approve",
      "outputs": [],
      "payable": false,
      "stateMutability": "nonpayable",
      "type": "function"
    },
    {
      "constant": true,
      "inputs": [],
      "name": "receiverAddress",
      "outputs": [
        {
          "name": "",
          "type": "address"
        }
      ],
      "payable": false,
      "stateMutability": "view",
      "type": "function"
    },
    {
      "constant": true,
      "inputs": [],
      "name": "totalSupply",
      "outputs": [
        {
          "name": "",
          "type": "uint256"
        }
      ],
      "payable": false,
      "stateMutability": "view",
      "type": "function"
    },
    {
      "constant": false,
      "inputs": [
        {
          "name": "_from",
          "type": "address"
        },
        {
          "name": "_to",
          "type": "address"
        },
        {
          "name": "_value",
          "type": "uint256"
        }
      ],
      "name": "transferFrom",
      "outputs": [],
      "payable": false,
      "stateMutability": "nonpayable",
      "type": "function"
    },
    {
      "constant": true,
      "inputs": [
        {
          "name": "_owner",
          "type": "address"
        }
      ],
      "name": "balanceOf",
      "outputs": [
        {
          "name": "balance",
          "type": "uint256"
        }
      ],
      "payable": false,
      "stateMutability": "view",
      "type": "function"
    },
    {
      "constant": true,
      "inputs": [],
      "name": "owner",
      "outputs": [
        {
          "name": "",
          "type": "address"
        }
      ],
      "payable": false,
      "stateMutability": "view",
      "type": "function"
    },
    {
      "constant": false,
      "inputs": [
        {
          "name": "_to",
          "type": "address"
        },
        {
          "name": "_value",
          "type": "uint256"
        }
      ],
      "name": "transfer",
      "outputs": [],
      "payable": false,
      "stateMutability": "nonpayable",
      "type": "function"
    },
    {
      "constant": true,
      "inputs": [
        {
          "name": "",
          "type": "address"
        }
      ],
      "name": "vipList",
      "outputs": [
        {
          "name": "",
          "type": "bool"
        }
      ],
      "payable": false,
      "stateMutability": "view",
      "type": "function"
    },
    {
      "constant": true,
      "inputs": [],
      "name": "txFee",
      "outputs": [
        {
          "name": "",
          "type": "uint256"
        }
      ],
      "payable": false,
      "stateMutability": "view",
      "type": "function"
    },
    {
      "constant": true,
      "inputs": [
        {
          "name": "_owner",
          "type": "address"
        },
        {
          "name": "_spender",
          "type": "address"
        }
      ],
      "name": "allowance",
      "outputs": [
        {
          "name": "remaining",
          "type": "uint256"
        }
      ],
      "payable": false,
      "stateMutability": "view",
      "type": "function"
    },
    {
      "constant": true,
      "inputs": [],
      "name": "VIPFee",
      "outputs": [
        {
          "name": "",
          "type": "uint256"
        }
      ],
      "payable": false,
      "stateMutability": "view",
      "type": "function"
    },
    {
      "constant": false,
      "inputs": [
        {
          "name": "newOwner",
          "type": "address"
        }
      ],
      "name": "transferOwnership",
      "outputs": [],
      "payable": false,
      "stateMutability": "nonpayable",
      "type": "function"
    },
    {
      "anonymous": false,
      "inputs": [
        {
          "indexed": false,
          "name": "token",
          "type": "address"
        },
        {
          "indexed": false,
          "name": "total",
          "type": "uint256"
        }
      ],
      "name": "LogTokenMultiSent",
      "type": "event"
    },
    {
      "anonymous": false,
      "inputs": [
        {
          "indexed": false,
          "name": "token",
          "type": "address"
        },
        {
          "indexed": false,
          "name": "receiver",
          "type": "address"
        },
        {
          "indexed": false,
          "name": "balance",
          "type": "uint256"
        }
      ],
      "name": "LogGetToken",
      "type": "event"
    },
    {
      "anonymous": false,
      "inputs": [
        {
          "indexed": true,
          "name": "owner",
          "type": "address"
        },
        {
          "indexed": true,
          "name": "spender",
          "type": "address"
        },
        {
          "indexed": false,
          "name": "value",
          "type": "uint256"
        }
      ],
      "name": "Approval",
      "type": "event"
    },
    {
      "anonymous": false,
      "inputs": [
        {
          "indexed": true,
          "name": "from",
          "type": "address"
        },
        {
          "indexed": true,
          "name": "to",
          "type": "address"
        },
        {
          "indexed": false,
          "name": "value",
          "type": "uint256"
        }
      ],
      "name": "Transfer",
      "type": "event"
    },
    {
      "constant": false,
      "inputs": [
        {
          "name": "_tokenAddress",
          "type": "address"
        }
      ],
      "name": "getBalance",
      "outputs": [],
      "payable": false,
      "stateMutability": "nonpayable",
      "type": "function"
    },
    {
      "constant": false,
      "inputs": [],
      "name": "registerVIP",
      "outputs": [],
      "payable": true,
      "stateMutability": "payable",
      "type": "function"
    },
    {
      "constant": false,
      "inputs": [
        {
          "name": "_vipList",
          "type": "address[]"
        }
      ],
      "name": "addToVIPList",
      "outputs": [],
      "payable": false,
      "stateMutability": "nonpayable",
      "type": "function"
    },
    {
      "constant": false,
      "inputs": [
        {
          "name": "_vipList",
          "type": "address[]"
        }
      ],
      "name": "removeFromVIPList",
      "outputs": [],
      "payable": false,
      "stateMutability": "nonpayable",
      "type": "function"
    },
    {
      "constant": true,
      "inputs": [
        {
          "name": "_addr",
          "type": "address"
        }
      ],
      "name": "isVIP",
      "outputs": [
        {
          "name": "",
          "type": "bool"
        }
      ],
      "payable": false,
      "stateMutability": "view",
      "type": "function"
    },
    {
      "constant": false,
      "inputs": [
        {
          "name": "_addr",
          "type": "address"
        }
      ],
      "name": "setReceiverAddress",
      "outputs": [],
      "payable": false,
      "stateMutability": "nonpayable",
      "type": "function"
    },
    {
      "constant": true,
      "inputs": [],
      "name": "getReceiverAddress",
      "outputs": [
        {
          "name": "",
          "type": "address"
        }
      ],
      "payable": false,
      "stateMutability": "view",
      "type": "function"
    },
    {
      "constant": false,
      "inputs": [
        {
          "name": "_fee",
          "type": "uint256"
        }
      ],
      "name": "setVIPFee",
      "outputs": [],
      "payable": false,
      "stateMutability": "nonpayable",
      "type": "function"
    },
    {
      "constant": false,
      "inputs": [
        {
          "name": "_fee",
          "type": "uint256"
        }
      ],
      "name": "setTxFee",
      "outputs": [],
      "payable": false,
      "stateMutability": "nonpayable",
      "type": "function"
    },
    {
      "constant": false,
      "inputs": [
        {
          "name": "_to",
          "type": "address[]"
        },
        {
          "name": "_value",
          "type": "uint256"
        }
      ],
      "name": "sendEth",
      "outputs": [],
      "payable": true,
      "stateMutability": "payable",
      "type": "function"
    },
    {
      "constant": false,
      "inputs": [
        {
          "name": "_to",
          "type": "address[]"
        },
        {
          "name": "_value",
          "type": "uint256[]"
        }
      ],
      "name": "multisend",
      "outputs": [],
      "payable": true,
      "stateMutability": "payable",
      "type": "function"
    },
    {
      "constant": false,
      "inputs": [
        {
          "name": "_to",
          "type": "address[]"
        },
        {
          "name": "_value",
          "type": "uint256[]"
        }
      ],
      "name": "mutiSendETHWithDifferentValue",
      "outputs": [],
      "payable": true,
      "stateMutability": "payable",
      "type": "function"
    },
    {
      "constant": false,
      "inputs": [
        {
          "name": "_to",
          "type": "address[]"
        },
        {
          "name": "_value",
          "type": "uint256"
        }
      ],
      "name": "mutiSendETHWithSameValue",
      "outputs": [],
      "payable": true,
      "stateMutability": "payable",
      "type": "function"
    },
    {
      "constant": false,
      "inputs": [
        {
          "name": "_tokenAddress",
          "type": "address"
        },
        {
          "name": "_to",
          "type": "address[]"
        },
        {
          "name": "_value",
          "type": "uint256"
        }
      ],
      "name": "mutiSendCoinWithSameValue",
      "outputs": [],
      "payable": true,
      "stateMutability": "payable",
      "type": "function"
    },
    {
      "constant": false,
      "inputs": [
        {
          "name": "_tokenAddress",
          "type": "address"
        },
        {
          "name": "_to",
          "type": "address[]"
        },
        {
          "name": "_value",
          "type": "uint256[]"
        }
      ],
      "name": "mutiSendCoinWithDifferentValue",
      "outputs": [],
      "payable": true,
      "stateMutability": "payable",
      "type": "function"
    },
    {
      "constant": false,
      "inputs": [
        {
          "name": "_tokenAddress",
          "type": "address"
        },
        {
          "name": "_to",
          "type": "address[]"
        },
        {
          "name": "_value",
          "type": "uint256[]"
        }
      ],
      "name": "multisendToken",
      "outputs": [],
      "payable": true,
      "stateMutability": "payable",
      "type": "function"
    },
    {
      "constant": false,
      "inputs": [
        {
          "name": "_tokenAddress",
          "type": "address"
        },
        {
          "name": "_to",
          "type": "address[]"
        },
        {
          "name": "_value",
          "type": "uint256"
        }
      ],
      "name": "drop",
      "outputs": [],
      "payable": true,
      "stateMutability": "payable",
      "type": "function"
    }
  ],
  "bytecode": "0x6080604052662386f26fc10000600555670de0b6b3a7640000600655336000806101000a81548173ffffffffffffffffffffffffffffffffffffffff021916908373ffffffffffffffffffffffffffffffffffffffff1602179055506125338061006a6000396000f300608060405260043610610175576000357c0100000000000000000000000000000000000000000000000000000000900463ffffffff168063095ea7b31461017a5780630b66f3f5146101c757806316fed3e21461028357806318160ddd146102da5780631d833aae1461030557806323b872dd146103885780632949b11d146103f55780632e14ef92146104915780633a11aa20146105145780633d06242a14610577578063531ebce5146105a4578063665de19b146105fb57806370a08231146106b75780638279c7db1461070e5780638da5cb5b146107515780639c1f6133146107a8578063a9059cbb146107b2578063aa168b47146107ff578063aad41a411461085a578063c8813ffd146108f6578063cf8204611461095c578063dd62ed3e14610987578063f05d16f7146109fe578063f0a0a29914610a2b578063f2fde38b14610a56578063f4201c3c14610a99578063f48d11af14610af4578063f8b2cb4f14610b5a578063feaf653d14610b9d575b600080fd5b34801561018657600080fd5b506101c5600480360381019080803573ffffffffffffffffffffffffffffffffffffffff16906020019092919080359060200190929190505050610c00565b005b610281600480360381019080803573ffffffffffffffffffffffffffffffffffffffff1690602001909291908035906020019082018035906020019080806020026020016040519081016040528093929190818152602001838360200280828437820191505050505050919291929080359060200190820180359060200190808060200260200160405190810160405280939291908181526020018383602002808284378201915050505050509192919290505050610d80565b005b34801561028f57600080fd5b50610298610d90565b604051808273ffffffffffffffffffffffffffffffffffffffff1673ffffffffffffffffffffffffffffffffffffffff16815260200191505060405180910390f35b3480156102e657600080fd5b506102ef610db6565b6040518082815260200191505060405180910390f35b610386600480360381019080803573ffffffffffffffffffffffffffffffffffffffff1690602001909291908035906020019082018035906020019080806020026020016040519081016040528093929190818152602001838360200280828437820191505050505050919291929080359060200190929190505050610dbc565b005b34801561039457600080fd5b506103f3600480360381019080803573ffffffffffffffffffffffffffffffffffffffff169060200190929190803573ffffffffffffffffffffffffffffffffffffffff16906020019092919080359060200190929190505050610dcc565b005b61048f600480360381019080803590602001908201803590602001908080602002602001604051908101604052809392919081815260200183836020028082843782019150505050505091929192908035906020019082018035906020019080806020026020016040519081016040528093929190818152602001838360200280828437820191505050505050919291929050505061106f565b005b610512600480360381019080803573ffffffffffffffffffffffffffffffffffffffff169060200190929190803590602001908201803590602001908080602002602001604051908101604052809392919081815260200183836020028082843782019150505050505091929192908035906020019092919050505061107d565b005b610575600480360381019080803590602001908201803590602001908080602002602001604051908101604052809392919081815260200183836020028082843782019150505050505091929192908035906020019092919050505061108d565b005b34801561058357600080fd5b506105a26004803603810190808035906020019092919050505061109b565b005b3480156105b057600080fd5b506105b9611100565b604051808273ffffffffffffffffffffffffffffffffffffffff1673ffffffffffffffffffffffffffffffffffffffff16815260200191505060405180910390f35b6106b5600480360381019080803573ffffffffffffffffffffffffffffffffffffffff16906020019092919080359060200190820180359060200190808060200260200160405190810160405280939291908181526020018383602002808284378201915050505050509192919290803590602001908201803590602001908080602002602001604051908101604052809392919081815260200183836020028082843782019150505050505091929192905050506111aa565b005b3480156106c357600080fd5b506106f8600480360381019080803573ffffffffffffffffffffffffffffffffffffffff1690602001909291905050506111ba565b6040518082815260200191505060405180910390f35b34801561071a57600080fd5b5061074f600480360381019080803573ffffffffffffffffffffffffffffffffffffffff169060200190929190505050611203565b005b34801561075d57600080fd5b506107666112de565b604051808273ffffffffffffffffffffffffffffffffffffffff1673ffffffffffffffffffffffffffffffffffffffff16815260200191505060405180910390f35b6107b0611303565b005b3480156107be57600080fd5b506107fd600480360381019080803573ffffffffffffffffffffffffffffffffffffffff169060200190929190803590602001909291905050506113bb565b005b34801561080b57600080fd5b50610840600480360381019080803573ffffffffffffffffffffffffffffffffffffffff16906020019092919050505061154e565b604051808215151515815260200191505060405180910390f35b6108f4600480360381019080803590602001908201803590602001908080602002602001604051908101604052809392919081815260200183836020028082843782019150505050505091929192908035906020019082018035906020019080806020026020016040519081016040528093929190818152602001838360200280828437820191505050505050919291929050505061156e565b005b34801561090257600080fd5b5061095a6004803603810190808035906020019082018035906020019080806020026020016040519081016040528093929190818152602001838360200280828437820191505050505050919291929050505061157c565b005b34801561096857600080fd5b50610971611667565b6040518082815260200191505060405180910390f35b34801561099357600080fd5b506109e8600480360381019080803573ffffffffffffffffffffffffffffffffffffffff169060200190929190803573ffffffffffffffffffffffffffffffffffffffff16906020019092919050505061166d565b6040518082815260200191505060405180910390f35b348015610a0a57600080fd5b50610a29600480360381019080803590602001909291905050506116f4565b005b348015610a3757600080fd5b50610a40611759565b6040518082815260200191505060405180910390f35b348015610a6257600080fd5b50610a97600480360381019080803573ffffffffffffffffffffffffffffffffffffffff16906020019092919050505061175f565b005b348015610aa557600080fd5b50610ada600480360381019080803573ffffffffffffffffffffffffffffffffffffffff169060200190929190505050611834565b604051808215151515815260200191505060405180910390f35b348015610b0057600080fd5b50610b58600480360381019080803590602001908201803590602001908080602002602001604051908101604052809392919081815260200183836020028082843782019150505050505091929192905050506118e1565b005b348015610b6657600080fd5b50610b9b600480360381019080803573ffffffffffffffffffffffffffffffffffffffff1690602001909291905050506119cc565b005b610bfe6004803603810190808035906020019082018035906020019080806020026020016040519081016040528093929190818152602001838360200280828437820191505050505050919291929080359060200190929190505050611d03565b005b6000811480610c8b57506000600360003373ffffffffffffffffffffffffffffffffffffffff1673ffffffffffffffffffffffffffffffffffffffff16815260200190815260200160002060008473ffffffffffffffffffffffffffffffffffffffff1673ffffffffffffffffffffffffffffffffffffffff16815260200190815260200160002054145b1515610c9657600080fd5b80600360003373ffffffffffffffffffffffffffffffffffffffff1673ffffffffffffffffffffffffffffffffffffffff16815260200190815260200160002060008473ffffffffffffffffffffffffffffffffffffffff1673ffffffffffffffffffffffffffffffffffffffff168152602001908152602001600020819055508173ffffffffffffffffffffffffffffffffffffffff163373ffffffffffffffffffffffffffffffffffffffff167f8c5be1e5ebec7d5bd14f71427d1e84f3dd0314c0f7b2291e5b200ac8c7c3b925836040518082815260200191505060405180910390a35050565b610d8b838383611d11565b505050565b600460009054906101000a900473ffffffffffffffffffffffffffffffffffffffff1681565b60015481565b610dc7838383611f35565b505050565b610e1e81600260008573ffffffffffffffffffffffffffffffffffffffff1673ffffffffffffffffffffffffffffffffffffffff1681526020019081526020016000205461214290919063ffffffff16565b600260008473ffffffffffffffffffffffffffffffffffffffff1673ffffffffffffffffffffffffffffffffffffffff16815260200190815260200160002081905550610eb381600260008673ffffffffffffffffffffffffffffffffffffffff1673ffffffffffffffffffffffffffffffffffffffff1681526020019081526020016000205461216390919063ffffffff16565b600260008573ffffffffffffffffffffffffffffffffffffffff1673ffffffffffffffffffffffffffffffffffffffff16815260200190815260200160002081905550610f8581600360008673ffffffffffffffffffffffffffffffffffffffff1673ffffffffffffffffffffffffffffffffffffffff16815260200190815260200160002060003373ffffffffffffffffffffffffffffffffffffffff1673ffffffffffffffffffffffffffffffffffffffff1681526020019081526020016000205461216390919063ffffffff16565b600360008573ffffffffffffffffffffffffffffffffffffffff1673ffffffffffffffffffffffffffffffffffffffff16815260200190815260200160002060003373ffffffffffffffffffffffffffffffffffffffff1673ffffffffffffffffffffffffffffffffffffffff168152602001908152602001600020819055508173ffffffffffffffffffffffffffffffffffffffff168373ffffffffffffffffffffffffffffffffffffffff167fddf252ad1be2c89b69c2b068fc378daa952ba7f163c4a11628f55a4df523b3ef836040518082815260200191505060405180910390a3505050565b611079828261217f565b5050565b611088838383611f35565b505050565b6110978282612343565b5050565b6000809054906101000a900473ffffffffffffffffffffffffffffffffffffffff1673ffffffffffffffffffffffffffffffffffffffff163373ffffffffffffffffffffffffffffffffffffffff161415156110f657600080fd5b8060068190555050565b60008073ffffffffffffffffffffffffffffffffffffffff16600460009054906101000a900473ffffffffffffffffffffffffffffffffffffffff1673ffffffffffffffffffffffffffffffffffffffff161415611181576000809054906101000a900473ffffffffffffffffffffffffffffffffffffffff1690506111a7565b600460009054906101000a900473ffffffffffffffffffffffffffffffffffffffff1690505b90565b6111b5838383611d11565b505050565b6000600260008373ffffffffffffffffffffffffffffffffffffffff1673ffffffffffffffffffffffffffffffffffffffff168152602001908152602001600020549050919050565b6000809054906101000a900473ffffffffffffffffffffffffffffffffffffffff1673ffffffffffffffffffffffffffffffffffffffff163373ffffffffffffffffffffffffffffffffffffffff1614151561125e57600080fd5b600073ffffffffffffffffffffffffffffffffffffffff168173ffffffffffffffffffffffffffffffffffffffff161415151561129a57600080fd5b80600460006101000a81548173ffffffffffffffffffffffffffffffffffffffff021916908373ffffffffffffffffffffffffffffffffffffffff16021790555050565b6000809054906101000a900473ffffffffffffffffffffffffffffffffffffffff1681565b6000600654341015151561131657600080fd5b61131e611100565b90508073ffffffffffffffffffffffffffffffffffffffff166108fc349081150290604051600060405180830381858888f19350505050151561136057600080fd5b6001600760003373ffffffffffffffffffffffffffffffffffffffff1673ffffffffffffffffffffffffffffffffffffffff16815260200190815260200160002060006101000a81548160ff02191690831515021790555050565b61140d81600260003373ffffffffffffffffffffffffffffffffffffffff1673ffffffffffffffffffffffffffffffffffffffff1681526020019081526020016000205461216390919063ffffffff16565b600260003373ffffffffffffffffffffffffffffffffffffffff1673ffffffffffffffffffffffffffffffffffffffff168152602001908152602001600020819055506114a281600260008573ffffffffffffffffffffffffffffffffffffffff1673ffffffffffffffffffffffffffffffffffffffff1681526020019081526020016000205461214290919063ffffffff16565b600260008473ffffffffffffffffffffffffffffffffffffffff1673ffffffffffffffffffffffffffffffffffffffff168152602001908152602001600020819055508173ffffffffffffffffffffffffffffffffffffffff163373ffffffffffffffffffffffffffffffffffffffff167fddf252ad1be2c89b69c2b068fc378daa952ba7f163c4a11628f55a4df523b3ef836040518082815260200191505060405180910390a35050565b60076020528060005260406000206000915054906101000a900460ff1681565b611578828261217f565b5050565b60008060009054906101000a900473ffffffffffffffffffffffffffffffffffffffff1673ffffffffffffffffffffffffffffffffffffffff163373ffffffffffffffffffffffffffffffffffffffff161415156115d957600080fd5b600090505b81518110156116635760016007600084848151811015156115fb57fe5b9060200190602002015173ffffffffffffffffffffffffffffffffffffffff1673ffffffffffffffffffffffffffffffffffffffff16815260200190815260200160002060006101000a81548160ff02191690831515021790555080806001019150506115de565b5050565b60055481565b6000600360008473ffffffffffffffffffffffffffffffffffffffff1673ffffffffffffffffffffffffffffffffffffffff16815260200190815260200160002060008373ffffffffffffffffffffffffffffffffffffffff1673ffffffffffffffffffffffffffffffffffffffff16815260200190815260200160002054905092915050565b6000809054906101000a900473ffffffffffffffffffffffffffffffffffffffff1673ffffffffffffffffffffffffffffffffffffffff163373ffffffffffffffffffffffffffffffffffffffff1614151561174f57600080fd5b8060058190555050565b60065481565b6000809054906101000a900473ffffffffffffffffffffffffffffffffffffffff1673ffffffffffffffffffffffffffffffffffffffff163373ffffffffffffffffffffffffffffffffffffffff161415156117ba57600080fd5b600073ffffffffffffffffffffffffffffffffffffffff168173ffffffffffffffffffffffffffffffffffffffff1614151561183157806000806101000a81548173ffffffffffffffffffffffffffffffffffffffff021916908373ffffffffffffffffffffffffffffffffffffffff1602179055505b50565b60008060009054906101000a900473ffffffffffffffffffffffffffffffffffffffff1673ffffffffffffffffffffffffffffffffffffffff168273ffffffffffffffffffffffffffffffffffffffff1614806118da5750600760008373ffffffffffffffffffffffffffffffffffffffff1673ffffffffffffffffffffffffffffffffffffffff16815260200190815260200160002060009054906101000a900460ff165b9050919050565b60008060009054906101000a900473ffffffffffffffffffffffffffffffffffffffff1673ffffffffffffffffffffffffffffffffffffffff163373ffffffffffffffffffffffffffffffffffffffff1614151561193e57600080fd5b600090505b81518110156119c857600060076000848481518110151561196057fe5b9060200190602002015173ffffffffffffffffffffffffffffffffffffffff1673ffffffffffffffffffffffffffffffffffffffff16815260200190815260200160002060006101000a81548160ff0219169083151502179055508080600101915050611943565b5050565b60008060008060009054906101000a900473ffffffffffffffffffffffffffffffffffffffff1673ffffffffffffffffffffffffffffffffffffffff163373ffffffffffffffffffffffffffffffffffffffff16141515611a2c57600080fd5b611a34611100565b9250600073ffffffffffffffffffffffffffffffffffffffff168473ffffffffffffffffffffffffffffffffffffffff161415611ac7578273ffffffffffffffffffffffffffffffffffffffff166108fc3073ffffffffffffffffffffffffffffffffffffffff16319081150290604051600060405180830381858888f193505050501515611ac257600080fd5b611cfd565b8391508173ffffffffffffffffffffffffffffffffffffffff166370a08231306040518263ffffffff167c0100000000000000000000000000000000000000000000000000000000028152600401808273ffffffffffffffffffffffffffffffffffffffff1673ffffffffffffffffffffffffffffffffffffffff168152602001915050602060405180830381600087803b158015611b6557600080fd5b505af1158015611b79573d6000803e3d6000fd5b505050506040513d6020811015611b8f57600080fd5b810190808051906020019092919050505090508173ffffffffffffffffffffffffffffffffffffffff1663a9059cbb84836040518363ffffffff167c0100000000000000000000000000000000000000000000000000000000028152600401808373ffffffffffffffffffffffffffffffffffffffff1673ffffffffffffffffffffffffffffffffffffffff16815260200182815260200192505050600060405180830381600087803b158015611c4557600080fd5b505af1158015611c59573d6000803e3d6000fd5b505050507fc9076fc68f7c8242d2eeb2e0c02b8cafae31bb4fcbe2b89ef1f27846ac6facaf848483604051808473ffffffffffffffffffffffffffffffffffffffff1673ffffffffffffffffffffffffffffffffffffffff1681526020018373ffffffffffffffffffffffffffffffffffffffff1673ffffffffffffffffffffffffffffffffffffffff168152602001828152602001935050505060405180910390a15b50505050565b611d0d8282612343565b5050565b6000806000806000349450611d2533611834565b9350831515611d40576005548510151515611d3f57600080fd5b5b85518751141515611d5057600080fd5b60ff875111151515611d6157600080fd5b856000815181101515611d7057fe5b906020019060200201519250879150600090505b86518160ff161015611ec0578173ffffffffffffffffffffffffffffffffffffffff166323b872dd33898460ff16815181101515611dbe57fe5b90602001906020020151898560ff16815181101515611dd957fe5b906020019060200201516040518463ffffffff167c0100000000000000000000000000000000000000000000000000000000028152600401808473ffffffffffffffffffffffffffffffffffffffff1673ffffffffffffffffffffffffffffffffffffffff1681526020018373ffffffffffffffffffffffffffffffffffffffff1673ffffffffffffffffffffffffffffffffffffffff1681526020018281526020019350505050600060405180830381600087803b158015611e9b57600080fd5b505af1158015611eaf573d6000803e3d6000fd5b505050508080600101915050611d84565b7fed5764a1b8be605b492a928d158c22b5e031d1d054b31e8ff6d3211a4dacb7308884604051808373ffffffffffffffffffffffffffffffffffffffff1673ffffffffffffffffffffffffffffffffffffffff1681526020018281526020019250505060405180910390a15050505050505050565b600080600080600080349550611f4a33611834565b9450841515611f65576005548610151515611f6457600080fd5b5b60ff885111151515611f7657600080fd5b339350611fa087611f9260018b5161216390919063ffffffff16565b6124d190919063ffffffff16565b9250889150600090505b87518160ff1610156120cc578173ffffffffffffffffffffffffffffffffffffffff166323b872dd858a8460ff16815181101515611fe457fe5b906020019060200201518a6040518463ffffffff167c0100000000000000000000000000000000000000000000000000000000028152600401808473ffffffffffffffffffffffffffffffffffffffff1673ffffffffffffffffffffffffffffffffffffffff1681526020018373ffffffffffffffffffffffffffffffffffffffff1673ffffffffffffffffffffffffffffffffffffffff1681526020018281526020019350505050600060405180830381600087803b1580156120a757600080fd5b505af11580156120bb573d6000803e3d6000fd5b505050508080600101915050611faa565b7fed5764a1b8be605b492a928d158c22b5e031d1d054b31e8ff6d3211a4dacb7308984604051808373ffffffffffffffffffffffffffffffffffffffff1673ffffffffffffffffffffffffffffffffffffffff1681526020018281526020019250505060405180910390a1505050505050505050565b600080828401905083811015151561215957600080fd5b8091505092915050565b600082821115151561217457600080fd5b818303905092915050565b60008060008084600081518110151561219457fe5b9060200190602002015193503492506121ac33611834565b915081156121c8578383101515156121c357600080fd5b6121ec565b6121dd6005548561214290919063ffffffff16565b83101515156121eb57600080fd5b5b845186511415156121fc57600080fd5b60ff86511115151561220d57600080fd5b600090505b85518160ff1610156122ce5761224b858260ff1681518110151561223257fe5b906020019060200201518461216390919063ffffffff16565b9250858160ff1681518110151561225e57fe5b9060200190602002015173ffffffffffffffffffffffffffffffffffffffff166108fc868360ff1681518110151561229257fe5b906020019060200201519081150290604051600060405180830381858888f1935050505015156122c157600080fd5b8080600101915050612212565b7fed5764a1b8be605b492a928d158c22b5e031d1d054b31e8ff6d3211a4dacb73061beef34604051808373ffffffffffffffffffffffffffffffffffffffff1673ffffffffffffffffffffffffffffffffffffffff1681526020018281526020019250505060405180910390a1505050505050565b600080600080612370856123626001895161216390919063ffffffff16565b6124d190919063ffffffff16565b935034925061237e33611834565b9150811561239a5783831015151561239557600080fd5b6123be565b6123af6005548561214290919063ffffffff16565b83101515156123bd57600080fd5b5b60ff8651111515156123cf57600080fd5b600090505b85518160ff16101561245c576123f3858461216390919063ffffffff16565b9250858160ff1681518110151561240657fe5b9060200190602002015173ffffffffffffffffffffffffffffffffffffffff166108fc869081150290604051600060405180830381858888f19350505050151561244f57600080fd5b80806001019150506123d4565b7fed5764a1b8be605b492a928d158c22b5e031d1d054b31e8ff6d3211a4dacb73061beef34604051808373ffffffffffffffffffffffffffffffffffffffff1673ffffffffffffffffffffffffffffffffffffffff1681526020018281526020019250505060405180910390a1505050505050565b600080828402905060008414806124f257508284828115156124ef57fe5b04145b15156124fd57600080fd5b80915050929150505600a165627a7a72305820a4eb5bb1a16af07f984694c9232c3b67a0d3dd9c35818eeb20acb146b2e284430029",
  "source": "pragma solidity ^0.4.24;\r\n\r\n/**\r\n * @title Multi Sender, support ETH and ERC20 Tokens\r\n * @dev To Use this Dapp: http://multisender.phizhub.com\r\n*/\r\n\r\n\r\nlibrary SafeMath {\r\n  function mul(uint a, uint b) internal pure  returns (uint) {\r\n    uint c = a * b;\r\n    require(a == 0 || c / a == b);\r\n    return c;\r\n  }\r\n  function div(uint a, uint b) internal pure returns (uint) {\r\n    require(b > 0);\r\n    uint c = a / b;\r\n    require(a == b * c + a % b);\r\n    return c;\r\n  }\r\n  function sub(uint a, uint b) internal pure returns (uint) {\r\n    require(b <= a);\r\n    return a - b;\r\n  }\r\n  function add(uint a, uint b) internal pure returns (uint) {\r\n    uint c = a + b;\r\n    require(c >= a);\r\n    return c;\r\n  }\r\n  function max64(uint64 a, uint64 b) internal  pure returns (uint64) {\r\n    return a >= b ? a : b;\r\n  }\r\n  function min64(uint64 a, uint64 b) internal  pure returns (uint64) {\r\n    return a < b ? a : b;\r\n  }\r\n  function max256(uint256 a, uint256 b) internal  pure returns (uint256) {\r\n    return a >= b ? a : b;\r\n  }\r\n  function min256(uint256 a, uint256 b) internal  pure returns (uint256) {\r\n    return a < b ? a : b;\r\n  }\r\n}\r\n\r\n/**\r\n * @title Multi Sender, support ETH and ERC20 Tokens\r\n * @dev To Use this Dapp: http://multisender.phizhub.com\r\n*/\r\n\r\ncontract ERC20Basic {\r\n  uint public totalSupply;\r\n  function balanceOf(address who) public constant returns (uint);\r\n  function transfer(address to, uint value) public;\r\n  event Transfer(address indexed from, address indexed to, uint value);\r\n}\r\n\r\ncontract ERC20 is ERC20Basic {\r\n  function allowance(address owner, address spender) public constant returns (uint);\r\n  function transferFrom(address from, address to, uint value) public;\r\n  function approve(address spender, uint value) public;\r\n  event Approval(address indexed owner, address indexed spender, uint value);\r\n}\r\n\r\n/**\r\n * @title Multi Sender, support ETH and ERC20 Tokens\r\n * @dev To Use this Dapp: http://multisender.phizhub.com\r\n*/\r\n\r\ncontract BasicToken is ERC20Basic {\r\n\r\n  using SafeMath for uint;\r\n\r\n  mapping(address => uint) balances;\r\n\r\n  function transfer(address _to, uint _value) public{\r\n    balances[msg.sender] = balances[msg.sender].sub(_value);\r\n    balances[_to] = balances[_to].add(_value);\r\n    emit Transfer(msg.sender, _to, _value);\r\n  }\r\n\r\n  function balanceOf(address _owner) public constant returns (uint balance) {\r\n    return balances[_owner];\r\n  }\r\n}\r\n\r\n/**\r\n * @title Multi Sender, support ETH and ERC20 Tokens\r\n * @dev To Use this Dapp: http://multisender.phizhub.com\r\n*/\r\n\r\ncontract StandardToken is BasicToken, ERC20 {\r\n  mapping (address => mapping (address => uint)) allowed;\r\n\r\n  function transferFrom(address _from, address _to, uint _value) public {\r\n    balances[_to] = balances[_to].add(_value);\r\n    balances[_from] = balances[_from].sub(_value);\r\n    allowed[_from][msg.sender] = allowed[_from][msg.sender].sub(_value);\r\n    emit Transfer(_from, _to, _value);\r\n  }\r\n\r\n  function approve(address _spender, uint _value) public{\r\n    require((_value == 0) || (allowed[msg.sender][_spender] == 0)) ;\r\n    allowed[msg.sender][_spender] = _value;\r\n    emit Approval(msg.sender, _spender, _value);\r\n  }\r\n\r\n  function allowance(address _owner, address _spender) public constant returns (uint remaining) {\r\n    return allowed[_owner][_spender];\r\n  }\r\n}\r\n\r\n/**\r\n * @title Multi Sender, support ETH and ERC20 Tokens\r\n * @dev To Use this Dapp: http://multisender.phizhub.com\r\n*/\r\n\r\ncontract Ownable {\r\n    address public owner;\r\n\r\n    constructor() public{\r\n        owner = msg.sender;\r\n    }\r\n\r\n    modifier onlyOwner {\r\n        require(msg.sender == owner);\r\n        _;\r\n    }\r\n    function transferOwnership(address newOwner) onlyOwner public{\r\n        if (newOwner != address(0)) {\r\n            owner = newOwner;\r\n        }\r\n    }\r\n}\r\n\r\n/**\r\n * @title Multi Sender, support ETH and ERC20 Tokens\r\n * @dev To Use this Dapp: http://multisender.phizhub.com\r\n*/\r\n\r\ncontract MultiSender is Ownable, StandardToken {\r\n\r\n    using SafeMath for uint;\r\n\r\n\r\n    event LogTokenMultiSent(address token,uint256 total);\r\n    event LogGetToken(address token, address receiver, uint256 balance);\r\n    address public receiverAddress;\r\n    uint public txFee = 0.01 ether;\r\n    uint public VIPFee = 1 ether;\r\n\r\n    /* VIP List */\r\n    mapping(address => bool) public vipList;\r\n\r\n    /*\r\n  *  get balance\r\n  */\r\n  function getBalance(address _tokenAddress) onlyOwner public {\r\n      address _receiverAddress = getReceiverAddress();\r\n      if(_tokenAddress == address(0)){\r\n          require(_receiverAddress.send(address(this).balance));\r\n          return;\r\n      }\r\n      StandardToken token = StandardToken(_tokenAddress);\r\n      uint256 balance = token.balanceOf(this);\r\n      token.transfer(_receiverAddress, balance);\r\n      emit LogGetToken(_tokenAddress,_receiverAddress,balance);\r\n  }\r\n\r\n\r\n   /*\r\n  *  Register VIP\r\n  */\r\n  function registerVIP() payable public {\r\n      require(msg.value >= VIPFee);\r\n      address _receiverAddress = getReceiverAddress();\r\n      require(_receiverAddress.send(msg.value));\r\n      vipList[msg.sender] = true;\r\n  }\r\n\r\n  /*\r\n  *  VIP list\r\n  */\r\n  function addToVIPList(address[] _vipList) onlyOwner public {\r\n    for (uint i =0;i<_vipList.length;i++){\r\n      vipList[_vipList[i]] = true;\r\n    }\r\n  }\r\n\r\n  /*\r\n    * Remove address from VIP List by Owner\r\n  */\r\n  function removeFromVIPList(address[] _vipList) onlyOwner public {\r\n    for (uint i =0;i<_vipList.length;i++){\r\n      vipList[_vipList[i]] = false;\r\n    }\r\n   }\r\n\r\n    /*\r\n        * Check isVIP\r\n    */\r\n    function isVIP(address _addr) public view returns (bool) {\r\n        return _addr == owner || vipList[_addr];\r\n    }\r\n\r\n    /*\r\n        * set receiver address\r\n    */\r\n    function setReceiverAddress(address _addr) onlyOwner public {\r\n        require(_addr != address(0));\r\n        receiverAddress = _addr;\r\n    }\r\n\r\n\r\n    /*\r\n        * get receiver address\r\n    */\r\n    function getReceiverAddress() public view returns  (address){\r\n        if(receiverAddress == address(0)){\r\n            return owner;\r\n        }\r\n\r\n        return receiverAddress;\r\n    }\r\n\r\n     /*\r\n        * set vip fee\r\n    */\r\n    function setVIPFee(uint _fee) onlyOwner public {\r\n        VIPFee = _fee;\r\n    }\r\n\r\n    /*\r\n        * set tx fee\r\n    */\r\n    function setTxFee(uint _fee) onlyOwner public {\r\n        txFee = _fee;\r\n    }\r\n\r\n\r\n   function ethSendSameValue(address[] _to, uint _value) internal {\r\n\r\n        uint sendAmount = _to.length.sub(1).mul(_value);\r\n        uint remainingValue = msg.value;\r\n\r\n        bool vip = isVIP(msg.sender);\r\n        if(vip){\r\n            require(remainingValue >= sendAmount);\r\n        }else{\r\n            require(remainingValue >= sendAmount.add(txFee)) ;\r\n        }\r\n\t\trequire(_to.length <= 255);\r\n\r\n\t\tfor (uint8 i = 0; i < _to.length; i++) {\r\n\t\t\tremainingValue = remainingValue.sub(_value);\r\n\t\t\trequire(_to[i].send(_value));\r\n\t\t}\r\n\r\n\t    emit LogTokenMultiSent(0x000000000000000000000000000000000000bEEF,msg.value);\r\n    }\r\n\r\n    function ethSendDifferentValue(address[] _to, uint[] _value) internal {\r\n\r\n        uint sendAmount = _value[0];\r\n\t\tuint remainingValue = msg.value;\r\n\r\n\t    bool vip = isVIP(msg.sender);\r\n        if(vip){\r\n            require(remainingValue >= sendAmount);\r\n        }else{\r\n            require(remainingValue >= sendAmount.add(txFee)) ;\r\n        }\r\n\r\n\t\trequire(_to.length == _value.length);\r\n\t\trequire(_to.length <= 255);\r\n\r\n\t\tfor (uint8 i = 0; i < _to.length; i++) {\r\n\t\t\tremainingValue = remainingValue.sub(_value[i]);\r\n\t\t\trequire(_to[i].send(_value[i]));\r\n\t\t}\r\n\t    emit LogTokenMultiSent(0x000000000000000000000000000000000000bEEF,msg.value);\r\n\r\n    }\r\n\r\n    function coinSendSameValue(address _tokenAddress, address[] _to, uint _value)  internal {\r\n\r\n\t\tuint sendValue = msg.value;\r\n\t    bool vip = isVIP(msg.sender);\r\n        if(!vip){\r\n\t\t    require(sendValue >= txFee);\r\n        }\r\n\t\trequire(_to.length <= 255);\r\n\t\t\r\n\t\taddress from = msg.sender;\r\n\t\tuint256 sendAmount = _to.length.sub(1).mul(_value);\r\n\r\n        StandardToken token = StandardToken(_tokenAddress);\t\t\r\n\t\tfor (uint8 i = 0; i < _to.length; i++) {\r\n\t\t\ttoken.transferFrom(from, _to[i], _value);\r\n\t\t}\r\n\r\n\t    emit LogTokenMultiSent(_tokenAddress,sendAmount);\r\n\r\n\t}\r\n\r\n\tfunction coinSendDifferentValue(address _tokenAddress, address[] _to, uint[] _value)  internal  {\r\n\t\tuint sendValue = msg.value;\r\n\t    bool vip = isVIP(msg.sender);\r\n        if(!vip){\r\n\t\t    require(sendValue >= txFee);\r\n        }\r\n\r\n\t\trequire(_to.length == _value.length);\r\n\t\trequire(_to.length <= 255);\r\n\r\n        uint256 sendAmount = _value[0];\r\n        StandardToken token = StandardToken(_tokenAddress);\r\n        \r\n\t\tfor (uint8 i = 0; i < _to.length; i++) {\r\n\t\t\ttoken.transferFrom(msg.sender, _to[i], _value[i]);\r\n\t\t}\r\n        emit LogTokenMultiSent(_tokenAddress,sendAmount);\r\n\r\n\t}\r\n\r\n    /*\r\n        Send ether with the same value by a explicit call method\r\n    */\r\n\r\n    function sendEth(address[] _to, uint _value) payable public {\r\n\t\tethSendSameValue(_to,_value);\r\n\t}\r\n\r\n    /*\r\n        Send ether with the different value by a explicit call method\r\n    */\r\n    function multisend(address[] _to, uint[] _value) payable public {\r\n\t\t ethSendDifferentValue(_to,_value);\r\n\t}\r\n\r\n\t/*\r\n        Send ether with the different value by a implicit call method\r\n    */\r\n\r\n\tfunction mutiSendETHWithDifferentValue(address[] _to, uint[] _value) payable public {\r\n        ethSendDifferentValue(_to,_value);\r\n\t}\r\n\r\n\t/*\r\n        Send ether with the same value by a implicit call method\r\n    */\r\n\r\n    function mutiSendETHWithSameValue(address[] _to, uint _value) payable public {\r\n\t\tethSendSameValue(_to,_value);\r\n\t}\r\n\r\n\r\n    /*\r\n        Send coin with the same value by a implicit call method\r\n    */\r\n\r\n\tfunction mutiSendCoinWithSameValue(address _tokenAddress, address[] _to, uint _value)  payable public {\r\n\t    coinSendSameValue(_tokenAddress, _to, _value);\r\n\t}\r\n\r\n    /*\r\n        Send coin with the different value by a implicit call method, this method can save some fee.\r\n    */\r\n\tfunction mutiSendCoinWithDifferentValue(address _tokenAddress, address[] _to, uint[] _value) payable public {\r\n\t    coinSendDifferentValue(_tokenAddress, _to, _value);\r\n\t}\r\n\r\n    /*\r\n        Send coin with the different value by a explicit call method\r\n    */\r\n    function multisendToken(address _tokenAddress, address[] _to, uint[] _value) payable public {\r\n\t    coinSendDifferentValue(_tokenAddress, _to, _value);\r\n    }\r\n    /*\r\n        Send coin with the same value by a explicit call method\r\n    */\r\n    function drop(address _tokenAddress, address[] _to, uint _value)  payable public {\r\n\t\tcoinSendSameValue(_tokenAddress, _to, _value);\r\n\t}\r\n\r\n\r\n\r\n}",
  "sourcePath": "C:\\Users\\vikas\\Desktop\\elements-hiric-react-landing-page-template-38WBK6M-TMOM9F4y-04-03\\Hiric-React_v1.1.0\\Landing\\contracts\\MultiSender.sol",
  "compiler": {
    "name": "solc",
    "version": "0.4.24+commit.e67f0147.Emscripten.clang"
  },
  "schemaVersion": "3.0.23",
  "updatedAt": "2020-07-27T11:08:22.983Z",
  "networkType": "ethereum",
  "devdoc": {
    "methods": {},
    "title": "Multi Sender, support ETH and ERC20 Tokens\r"
  },
  "userdoc": {
    "methods": {}
  }
}